:1000000080314D2808343E347E1480310030860023
:10001000003087000B1F0D280E284B282100111ED1
:10002000122813281F282000111E172818281F28FF
:10003000210041088A0040080A0080314B28210035
:10004000911E2328242830282000911E28282928A2
:10005000302821003F088A003E080A0080314B28E2
:100060002100921C342835283E282000921C392873
:100070003A283E289B31742380314B282100911C63
:10008000422843284B282000911C472848284B2809
:100090009B31652380317E10090080314F2821007B
:1000A000803102208031ED00803103208031EE006C
:1000B000F801F901FA01FB01FC01FD012000EF014B
:1000C000A0308400003085002D309A31ED2280313F
:1000D000203084000130850048309A31ED22803193
:1000E000A03084000130850040309A31ED2280310B
:1000F000203084000230850040309A31ED2280317A
:10010000A03084000230850040309A31ED228031E9
:100110007E1020009431D12C20006C088600023023
:1001200087000108031D952896289728782E6230AD
:10013000E100AA30E2009B31C023803120006C082E
:10014000A0007930A100AA30A2009E311126803192
:10015000200020082104031DAE28AF2895296E3009
:10016000E100A830E2009B31C02380312100E10191
:100170008629BB302000E100A830E20021006108A0
:10018000013E2000E300003003180130E4002100AC
:100190006108CD000230CD35890BCB284D08603E7B
:1001A0008600013087000108CE00CF014E082000F4
:1001B000E50021004F082000E6000E30A0002100DD
:1001C00061089C3117248031443E8600013087004D
:1001D000010891314121803120002408E8002308E2
:1001E000E7009B31C02380310E302000A0002100A9
:1001F00061089C3117248031513E86000130870010
:10020000010A03190429052920293D302000E100B5
:10021000A930E2000E30A000210061089C311724B3
:100220008031513E8600013087000108013E2000E8
:10023000E300003003180130E4009B31C02380311B
:100240000E302000A000210061089C31172480316D
:10025000453E8600013087000108031D3029312901
:1002600037295A302100D500AA30D6003C294D301C
:100270002100D500AA30D600B3302000E100A9301B
:10028000E200210056082000E4002100550820006B
:10029000E3009B31C023803121006108CD00023092
:1002A000CD35890B50294D08623E8600013087000C
:1002B000010A03195C295D297B2961302000E100D6
:1002C000A930E20021006108CD000230CD35890B54
:1002D00066294D08623E8600013087000108CE0085
:1002E000CF014E082000E30021004F082000E40069
:1002F0009B31C023803162302000E100AA30E2004F
:100300009B31C023803101302100E1076D0861027B
:10031000031C8B298C29B92888302000E100A830E3
:10032000E2009B31C0238031782E6C08A000C830D9
:10033000A100A930A2000830A3000030A4009F3122
:1003400001278031200020082104031DA829A929A4
:10035000342A6C08083E8600023087000108CF3E30
:100360002100D9006D0859020318B729B829182AA5
:1003700020006C08093E860002308700203001060C
:10038000031DC329C429182A6C080A3E86000230BE
:10039000870030300102031CCE29CF29182A6C08AF
:1003A0000A3E8600023087003A3001020318D9293C
:1003B000DA29182A6C080B3E8600023087000A30C2
:1003C000A0006C080A3E84000230850000089C31C1
:1003D000172480310107F03E2100D7005908CD00D5
:1003E0000230CD35890BF1294D08603E8600013081
:1003F000870057088100C3302000E100A430E200EC
:1004000021005908013E2000E300003003180130AC
:10041000E40021005708CD00CE014D082000E50082
:1004200021004E082000E6009B31C0238031782E49
:10043000A2302000E100A830E2009B31C0238031CF
:100440003E302000E100A230E20021006D08CD0026
:10045000CE014D082000E30021004E082000E400FA
:100460009B31C0238031782E6C08A000DA30A100C7
:10047000A930A2000730A3000030A4009F3101275B
:100480008031200020082104031D472A482A082B18
:100490006C08073E8600023087000108CF3E21002D
:1004A000E000DA0120006C08093EA0009430A100B1
:1004B000AA30A2000230A3000030A4009F3101271F
:1004C0008031200020082104031D672A682A6C2A35
:1004D00002302100DA00842A6C08093EA00087302F
:1004E000A100AA30A2000330A3000030A4009F3175
:1004F00001278031200020082104031D802A812A41
:10050000842A01302100DA0021006D0860020318FE
:100510008A2A8B2AEC2A5A0803198F2A902AEC2A55
:100520005A03031D942A952AB42A0E302000A000F5
:10053000210060089C3117248031443E8600013040
:1005400087008101A6302000E100A530E2002100F3
:100550006008013E2000E300003003180130E40091
:100560009B31C0238031782E02305A06031DB92AF0
:10057000BA2ADA2A0E302000A000210060089C313F
:1005800017248031443E8600013087000930810005
:10059000FA302000E100A230E20021006008013EB4
:1005A0002000E300003003180130E4009B31C02339
:1005B0008031782EE0302000E100A730E2002100F9
:1005C0006008013E2000E300003003180130E40021
:1005D0009B31C0238031782EA2302000E100A8306A
:1005E000E2009B31C023803181302000E100A53042
:1005F000E20021006D08CD00CE014D082000E3008F
:1006000021004E082000E4009B31C0238031782E69
:100610006C08A0008130A100A930A2009E311126F3
:100620008031200020082104031D172B182B2D2BAF
:10063000D330E100A830E2009B31C0238031293063
:100640002100CE009630CD007F30890B252BCD0BBD
:10065000252BCE0B252B0100782E6C08A0004630F0
:10066000A100AA30A2000630A3000030A4009F31F0
:1006700001278031200020082104031D402B412B3D
:10068000CC2C6C08063EA0006A30A100AA30A20063
:100690000430A3000030A4009F31012780312000E6
:1006A00020082104031D552B562BEE2B6C080A3E07
:1006B0008600023087000108D03E2100DB002000C8
:1006C0006C080C3E8600023087000108D03E2100F5
:1006D000DC0020006C080B3E8600023087002030D2
:1006E0000106031D742B752BD32B6B30E100A73053
:1006F000E20021005B08CD00CE014D082000E300A0
:1007000021004E082000E40021005C08CF00D00149
:100710004F082000E500210050082000E6002100DD
:100720005C08D100D20151082000E70021005208E6
:100730002000E80021005B08D300D401530820000A
:10074000E900210054082000EA009B31C0238031D9
:1007500021005B082000A80021005C082000A900FF
:10076000013088314920803174302000E100A4300C
:10077000E20021005B08CD00CE014D082000E3001F
:1007800021004E082000E40021005C08CF00D001C9
:100790004F082000E500210050082000E6009B31B2
:1007A000C0238031782E3630E100A830E2009B3142
:1007B000C02380317B302000E100A330E200210023
:1007C0006D08CD00CE014D082000E30021004E0849
:1007D0002000E4009B31C0238031782E6C08063E57
:1007E000A0006530A100AA30A2000430A3000030B0
:1007F000A4009F3101278031200020082104031D1F
:10080000022C032C9B2C6C080A3E860002308700C9
:100810000108D03E2100DD0020006C080C3E86005F
:10082000023087000108D03E2100DE0020006C0865
:100830000B3E86000230870020300106031D212C6C
:10084000222C802C4D30E100A730E20021005D0811
:10085000CD00CE014D082000E30021004E0820000D
:10086000E40021005E08CF00D0014F082000E50021
:10087000210050082000E60021005E08D100D201CE
:1008800051082000E700210052082000E800210064
:100890005D08D300D40153082000E900210054086A
:1008A0002000EA009B31C023803121005D08200038
:1008B000A80021005E082000A900003088314920EE
:1008C0008031F9302000E100A330E20021005D0812
:1008D000CD00CE014D082000E30021004E0820008D
:1008E000E40021005E08CF00D0014F082000E500A1
:1008F000210050082000E6009B31C0238031782E73
:100900003630E100A830E2009B31C0238031513005
:100910002000E100A330E20021006D08CD00CE01EF
:100920004D082000E30021004E082000E4009B3128
:10093000C0238031782E6C08063EA0008430A100D0
:10094000A930A2009E311126803120002008210408
:10095000031DAB2CAC2CBC2C3F30A100AA30A20054
:100960009C3155248031C7302000E100A630E200E0
:100970009B31C0238031782E8130E100A630E20027
:100980009B31C0238031EA302000E100A630E20034
:100990009B31C0238031782E6C08A000E230A1008A
:1009A000A930A2000730A3000030A4009F31012726
:1009B0008031200020082104031DDF2CE02C982D1D
:1009C0006C08073E8600023087000108CF3E2100F8
:1009D000DF006D085F020318EE2CEF2C842D200041
:1009E0006C08083E86000230870020300106031D97
:1009F000FA2CFB2C842D6C08093EA0008730A10046
:100A0000AA30A2000330A3000030A4009F310127C8
:100A10008031200020082104031D0F2D102D302DC2
:100A200021005F08CD000230CD35890B142D4D0813
:100A3000623E860001308700FF308100393020009F
:100A4000E100A630E20021005F08013E2000E30043
:100A5000003003180130E4009B31C0238031782E30
:100A60006C08093E86000230870030300102031C0A
:100A70003A2D3B2D782E6C08093E86000230870007
:100A80003A3001020318452D462D782E6C080A3E97
:100A90008600023087000A30A0006C08093E8400FE
:100AA0000230850000089C31172480310107F03E98
:100AB0002100D8005F08CD000230CD35890B5D2DB7
:100AC0004D08623E860001308700580881004B3097
:100AD0002000E100A430E20021005F08013E200078
:100AE000E300003003180130E40021005808CD0075
:100AF000CE014D082000E50021004E082000E60050
:100B00009B31C0238031782E00302000E100A130DD
:100B1000E20021006D08CD00CE014D082000E30069
:100B200021004E082000E4009B31C0238031782E44
:100B30006C08A0007230A100A930A2009E311126DD
:100B40008031200020082104031DA72DA82DB42DDD
:100B500092310D2280315C302000E100A530E200AE
:100B60009B31C0238031782E6C08A0007430A10026
:100B7000AA30A2009E3111268031200020082104D5
:100B8000031DC32DC42D6D2E5030E100A930E200AD
:100B90009B31C023803115302000E100A630E200F7
:100BA0009B31C023803199302000E100A230E20067
:100BB0009B31C023803134302000E100A230E200BC
:100BC00021006D08CD00CE014D082000E30021007A
:100BD0004E082000E4009B31C0238031A530200066
:100BE000E100A330E2009B31C0238031CA302000F5
:100BF000E100A230E20021006D08CD00CE014D08D9
:100C00002000E30021004E082000E4009B31C023B7
:100C100080315D302000E100A630E2009B31C0232E
:100C20008031F6302000E100A030E20021006D08A4
:100C3000CD00CE014D082000E30021004E08200029
:100C4000E4009B31C023803198302000E100A130C6
:100C5000E2009B31C023803167302000E100A230E8
:100C6000E2009B31C02380313F302000E100A03002
:100C7000E2009B31C023803100302000E100A03031
:100C8000E2009B31C0238031BA302000E100A03067
:100C9000E2009B31C023803162302000E100AA30A5
:100CA000E2009B31C023803164302000E100A1309C
:100CB000E2009B31C0238031CF302000E100A3301F
:100CC000E2009B31C023803191302000E100A83048
:100CD000E2009B31C0238031782EEA30E100A83059
:100CE000E2006C08E3000230E4009B31C023803155
:100CF000080020004B0886008701403FCE00413F9E
:100D0000CF004E0884004F0885001200253A031DCD
:100D10008A2E8B2EAB2F4B0886008701013081076E
:100D200041310318810A2100AC01AD010030F80007
:100D3000FF302200C000FF30C1002000D801C22EC9
:100D400078144B0886008701013081074131031870
:100D5000810AC22EF814A12E0130D800C22E4B08F1
:100D600086008701403FCE00413FCF004E088400FF
:100D70004F08850000082D3A0319A02E1D3A0319CB
:100D8000AA2EAC2E58080319C62EC72EAF2E781CDB
:100D9000CA2ECB2ECD2EFD30F8054B08A6004C08F0
:100DA000A700903187208631200027082100AD0060
:100DB000200026082100AC00AD1FDF2EE02EE62E1D
:100DC0007814AC09AD09AC0A0319AD0A20004B0830
:100DD00086008701403FD600413FD7005608840077
:100DE000570885001200643A0319F72EF82E022FD7
:100DF00056088400570885001200693A031D012F28
:100E0000022F282F4C0886004D0887000108840017
:100E1000850102308107003FD200013FD300560810
:100E2000013ECE000030573DCF004B0886008701C1
:100E30004E08C03F4F08C13F4A08BD004908BC00EA
:100E40005308BF005208BE0094311E248631C52FBE
:100E5000D8014B0886008701403FCE00413FCF00BC
:100E60004E0884004F0885001200733A031D392F85
:100E70003A2F452F4B088600870101308107413109
:100E80000318810A0130D800872F4B08860087019C
:100E9000403FCE00413FCF004E0884004F08850000
:100EA00012006C3A031D552F562F872F4B088600D2
:100EB0008701403FCE00413FCF0001304E07840004
:100EC0004F080318013E850012006C3A031D692F7C
:100ED0006A2F872F4B0886008701403FCE00413F95
:100EE000CF0002304E0784004F080318013E8500F2
:100EF0001200733A031D7D2F7E2F872F4B0886002B
:100F000087010330810741310318810A422F5808B5
:100F100003198B2F8C2FA12F4A08AD004908AC0074
:100F20004C0886004D0887000108840085010230C6
:100F30008107003FAE00013FAF009231E4228631CD
:100F4000C52F20004B088600870101308107413101
:100F50000318810AC52F4B0886008701403FCE0049
:100F6000413FCF004E0884004F0885000008D000A4
:100F7000D1015008A3005108A4004A08A60049085E
:100F8000A5009031E3208631A12F080021009112A5
:100F9000B030BE001E30BF0011126930C0001D30DD
:100FA000C100483023009F0090309D0026309E00F5
:100FB00040309B0003309C00DE302000A0001A303F
:100FC000A1009B3183238731E0302000A0001A303C
:100FD000A1009B31922387312200C201C301FB0192
:100FE0002100CB0120302000EF00FA01F90121009F
:100FF000CA01911608003E001A0E890C013908003A
:10100000310095110800781C0628072811282000B7
:101010003608AC003508AE003408AD009D31C62559
:1010200088312000B81F152816281828B701B801E4
:10103000BA01BB012C2820302000A3000030A400FE
:101040003508A6003408A5009031E320883101302E
:101050002000BA070030BB3D3B08803AB900380891
:10106000803A3902031D362837083A02031C392812
:101070003A281B2878183D283E28482820003608A2
:10108000AC003508AE003408AD009D31C62588316E
:1010900008002000AC002C03031D4F2850285328C3
:1010A0004330AD0055285230AD000D30B200B301D1
:1010B0000A30A0000030A1002808AA00AB012A08CD
:1010C000A2002B08A30090312B208831200020089B
:1010D000303EAE000A30A0000030A1002808AA006F
:1010E000AB012A08A2002B08A3009F3152278831A8
:1010F00020002008303EAF000A30A0000030A100E0
:101100002908AA00AB012A08A2002B08A3009031ED
:101110002B20883120002008303EB0000A30A0008B
:101120000030A1002908AA00AB012A08A2002B0860
:10113000A3009F315227883120002008303EB100A3
:101140002D30A1000030A2009C31552488310B3095
:101150002000AA006230890BAB28AA0BAB28000044
:101160000A302000A0000030A1002908AA00AB012D
:101170002A08A2002B08A30090312B2088312000E0
:101180002008303EAE000A30A0000030A10029083F
:10119000AA00AB012A08A2002B08A3009F31522706
:1011A000883120002008303EAF000A30A000003017
:1011B000A1002808AA00AB012A08A2002B08A3005E
:1011C00090312B20883120002008303EB0000A30BA
:1011D000A0000030A1002808AA00AB012A08A20044
:1011E0002B08A3009F315227883120002008303E71
:1011F000B1002D30A1000030A2009C31552488316F
:101200000B302000AA006230890B0429AA0B0429A4
:1012100000000800F7010630F00077089C31042434
:101220008931A03E86008701010803191829192970
:10123000EE290630F00077089C3104248931A23E63
:10124000860087010130810741310318810AD229C4
:10125000F001F00A77089C31DA248931EE29063052
:10126000F00077089C3104248931A23E8600870172
:10127000403FF500413FF60003307602E8300319A5
:1012800075020318442945296329203021006E0284
:10129000031C4B294C295329F001F00A77089C3193
:1012A000DA2489315829F00177089C31DA24893110
:1012B00001302100EE026E08031D5F296029EE292E
:1012C0003E30EE00EE290630F00077089C31042411
:1012D0008931A23E86008701403FF500413FF6007C
:1012E0000B307602B8300319750203187829792972
:1012F0007F29F00177089C31DA248931EE29063004
:10130000F00077089C3104248931A23E86008701D1
:101310000030C03FC13FEE290630F00077089C3115
:1013200004248931A23E86008701403FF500413FF9
:10133000F60001307602F430031975020318A12972
:10134000A229A929F001F00A77089C31DA24893111
:10135000EE290630F00077089C3104248931A23E42
:1013600086008701403FF500413FF60003307602DA
:10137000E830031975020318BE29BF29C529F001F9
:1013800077089C31DA248931EE290630F00077089D
:101390009C3104248931A23E860087010030C03F81
:1013A000C13FEE290630F00077089C3104248931D2
:1013B000A03E860087010108F500F6017608003A94
:1013C0000319E329EE297508013A03192829033A7C
:1013D00003192F29013A03198C29EE290630F00050
:1013E00077089C3104248931A13E860087010108D9
:1013F0000319FB29FC29962A0630F00077089C3156
:1014000004248931A23E86008701013081074131E1
:101410000318810A0630F00077089C3104248931D2
:10142000A23E86008701403FF500413FF6000330B1
:101430007602E8300319750203181F2A202A6E2A43
:101440000630F00077089C3104248931A43E8600E0
:101450008701013081070630F00077089C310424B1
:101460008931A43E8600870119300102031C392A04
:101470003A2A962A0630F00077089C3104248931F4
:10148000A43E8600870181010630F00077089C3178
:1014900004248931A53E860087010630F0007708D4
:1014A0009C3104248931A53E84008501000803197C
:1014B0005A2A5C2A01305D2A003081000630F00093
:1014C00077089C3104248931A53E860087010108F4
:1014D000F30077089C31BE248931962A0630F0004B
:1014E00077089C3104248931A23E86008701403F61
:1014F000F500413FF6000B307602B8300319750253
:101500000318832A842A8A2AF30177089C31BE248F
:101510008931962A0630F00077089C3104248931FD
:10152000A23E860087010030C03FC13F0130F7076F
:1015300002307702031C9D2A9E2A0B2908002100F5
:10154000D6000E302000A000210056089C31172440
:101550008A31443E2100D700570A860001308700B7
:1015600056089C313F248A3181002100570A8600A9
:10157000013087000108031DBE2ABF2AC52F570866
:10158000023E8600013087000103031DC82AC92AD4
:10159000D92AE8302000EC000330ED002100570884
:1015A0000B3E86000130870020006C08C03F6D08AC
:1015B000C13F210057080B3E86000130870016000E
:1015C0000104031DE42AE52AC52F570886000130CF
:1015D000870001080319ED2AEE2AC52F5708860057
:1015E00001308700053001060319F72AF82AC52FB4
:1015F00057080D3E860001308700010A0319012BB0
:10160000022BE02B57080D3E8600013087000108B1
:10161000D400570886000130870004300106031DFE
:10162000122B132B502B2000A301210054089131C1
:10163000A4218A310E302000A000210054089C31E2
:1016400017248A31443E86000130870081010E3024
:101650002000A000210054089C3117248A31513EFB
:10166000860001308700FF308100CC302000E1008F
:10167000A130E20021005608013E2000E3000030C6
:1016800003180130E40021005408013E2000E50069
:10169000003003180130E6009B31C0238A31E02B73
:1016A000570886000130870006300106031D592BBC
:1016B0005A2BE02B5608013E2000A80021005408B8
:1016C000013E2000A9000030883149208A310E30C7
:1016D0002000A000210054089C3117248A31443E88
:1016E000860001308700093001060319782B792B19
:1016F000B82B03302000A300210054089E3173262C
:101700008A310E302000A000210054089C3117249B
:101710008A31443E860001308700073081000E3058
:101720002000A000210054089C3117248A31513E2A
:10173000860001308700FF3081002F302000E1005B
:10174000A130E20021005608013E2000E3000030F5
:1017500003180130E40021005408013E2000E50098
:10176000003003180130E6009B31C0238A31E02BA2
:101770000E302000A000210054089C3117248A312B
:10178000513E860001308700FF3081007E3020000E
:10179000E100A030E20021005608013E2000E300F5
:1017A000003003180130E40021005408013E2000FD
:1017B000E500003003180130E6009B31C0238A3178
:1017C0002000A301210056089E3173268A31200093
:1017D000A301210056089131A4218A312100570824
:1017E000860001308700093001060319F82BF92B18
:1017F000C52F5708860001308700810157080D3E2C
:10180000860001308700FF30810052302000E10067
:10181000A830E20021005608013E2000E30000301D
:1018200003180130E4009B31C0238A31C52F210009
:101830005708023E8600013087000108031D212C55
:10184000222CF32F570A8600013087000103031D65
:101850002A2C2B2CF32F56082000EC000230EC35FC
:10186000890B2F2C6C08623E860001308700010A2C
:1018700003193B2C3C2CBA2C21005708053E86004E
:10188000013087000A302000A0000030A1002100B4
:1018900056082000EC000230EC35890B4C2C6C080B
:1018A000623E8400013085000008ED00EE016D0805
:1018B000A2006E08A30090312B208A31200020085E
:1018C000810021005708063E8600013087000A305B
:1018D0002000A0000030A100210056082000EC00EC
:1018E0000230EC35890B712C6C08623E84000130AB
:1018F00085000008ED00EE016D08A2006E08A3004F
:101900009F3152278A31200020088100210057088A
:10191000043E8600013087000230810057088600AF
:10192000013087000330810000302000E100A23048
:10193000E20021005608013E2000E30000300318B9
:101940000130E400210056082000EC000230EC35A4
:10195000890BA72C6C08623E8600013087000108C5
:10196000ED00EE016D08E5006E08E6009B31C02336
:101970008A31F32FA301A30A210056089E31732652
:101980008A3121005708033E86000130870081011B
:101990005708043E86000130870081015708860001
:1019A00001308700013081002D302000E100A73098
:1019B000E20021005608013E2000E3000030031839
:1019C0000130E4009B31C0238A31F32F21005708F6
:1019D000023E8600013087000103031DF02CF12C2C
:1019E000F32F570A8600013087000108031DF92CE8
:1019F000FA2CF32F2000A301210056089E317326F4
:101A00008A3121005708033E8600013087000130EB
:101A1000810058302000EC000230ED002100570812
:101A2000073E86000130870020006C08C03F6D082B
:101A3000C13F210057088600013087000230810035
:101A4000EA302000E100A430E20021005608013E07
:101A50002000E300003003180130E4009B31C02374
:101A60008A31F32F21005708023E8600013087009B
:101A70000103031D3C2D3D2D5D2D570A86000130CD
:101A800087000108031D452D462D5D2D5708033E97
:101A90008600013087000130810758302000EC00BB
:101AA0000230ED0021005708073E86000130870014
:101AB00020006C08C03F6D08C13F2100570A860016
:101AC000013087000103031D662D672DF32F570892
:101AD000073E86000130870016000104031D712DAA
:101AE000722DF32F5708033E86000130870001084E
:101AF00003197B2D7C2DF32F5708033E8600013000
:101B000087000A3001060319862D872D982D570866
:101B1000033E86000130870001082000EC00ED0143
:101B20006C082100CD0020006D082100CE009A2D08
:101B3000CD01CE014D08D0005708043E860001308B
:101B40008700010857072000EC006C08053E86005E
:101B5000013087002100500881005708043E8600AC
:101B600001308700013081075708033E86000130AD
:101B700087008101C3302000E100A730E20021008E
:101B80005608013E2000E300003003180130E40055
:101B9000210050082000EC00ED016C08E5006D0804
:101BA000E6009B31C0238A3121005708043E86009D
:101BB0000130870002300102031CDF2DE02DF32FDE
:101BC000570886000130870003308100363020003E
:101BD000E100A530E20021005608013E2000E300AC
:101BE000003003180130E4009B31C0238A31F32F09
:101BF00021005708063E8600013087000A30200089
:101C0000A00021005708053E84000130850000082F
:101C10009C3117248A3101072100D100FF30D50003
:101C2000D2012A2E52082000EC000230EC35890B3C
:101C3000162E6C08603E86000130870001082100E6
:101C40005106031D242E252E282E5208D500302E95
:101C50000130D2076D085202031C2F2E302E122E97
:101C6000550A0319342E352E3B2E55085606031DF2
:101C70003A2E3B2E652E03302000A300210056088B
:101C80009E3173268A312100570886000130870073
:101C900007308100CB302000E100A530E2002100B8
:101CA0005608013E2000E300003003180130E40034
:101CB000210051082000EC00ED016C08E5006D08E2
:101CC000E6009B31C0238A31F32F0E302000A000A4
:101CD000210055089C3117248A31443E860001308A
:101CE00087000108031D752E762ECD2E2100570882
:101CF0000D3E860001308700550881000E3020001F
:101D0000A000210055089C3117248A31513E8600DD
:101D10000130870021005608810002302000A30016
:101D2000210056089E3173268A312100570886000B
:101D300001308700043081002000A301A30A2100A4
:101D400055089131A4218A310E302000A0002100D5
:101D500055089C3117248A31443E860001308700A3
:101D60000530810010302000E100A530E2002100A4
:101D70005608013E2000E300003003180130E40063
:101D800021005508013E2000E50000300318013015
:101D9000E6009B31C0238A31F32F0E302000A000D3
:101DA000210055089C3117248A31443E86000130B9
:101DB000870009300106031DDE2EDF2E332F2100A0
:101DC00057080D3E860001308700550881000E300F
:101DD0002000A000210055089C3117248A31513E73
:101DE0008600013087002100560881002000A301F1
:101DF000210056089E3173268A312100570886003B
:101E0000013087000630810057080D3E8600013002
:101E100087000108CF005608013E2000A8002100DD
:101E20004F08013E2000A9000130883149208A3145
:101E300026302000E100A330E20021005608013ED8
:101E40002000E300003003180130E40021005508B1
:101E5000013E2000E500003003180130E6009B3110
:101E6000C0238A31F32F03302000A300210056083D
:101E70009E3173268A312100570886000130870081
:101E800007308100A4302000E100A630E2002100EC
:101E90005608013E2000E300003003180130E40042
:101EA00021005508013E2000E500003003180130F4
:101EB000E6009B31C0238A31F32F21005708023EF0
:101EC0008600013087000108031D672F682FF32F5C
:101ED000570A8600013087000103031D702F712F00
:101EE000F32F2000A301210056089131A4218A314B
:101EF000210057080D3E8600013087000108D300FD
:101F00002000A301210053089E3173268A3121004D
:101F10005608013E2000A80021005308013E200081
:101F2000A9000130883149208A31210057088600F4
:101F300001308700063081000E302000A000210013
:101F400053089C3117248A31443E860001308700B3
:101F5000063081009C302000E100A430E200210026
:101F60005608013E2000E300003003180130E40071
:101F700021005308013E2000E50000300318013025
:101F8000E6009B31C0238A31F32F210057088600D9
:101F90000130870001082000EC00ED016D08003AD7
:101FA0000319D32FF32F6C08003A0319172C013AA9
:101FB0000319E62C033A0319322D013A0319F82DBF
:101FC000073A0319F32F013A03195D2F033A031956
:101FD000F32F013A0319F32F0F3A0319F32F013AA4
:101FE0000319F32FF32F21005708023E860001301A
:101FF0008700570A8400013085000008810008002E
:102000000800023008009B31442390319E31412664
:1020100090319B31D02390319B31E12390319B3122
:10202000A12390319C31F62490319D314C25903183
:102030009C316E2490319C31A32490318731C62786
:1020400090319B31592390319A31E42290319B3168
:102050004E23903108002000A501A11F302831280F
:102060003828A009A109A00A0319A10A0130A50076
:10207000A31F3B283C284328A209A309A20A03194D
:10208000A30A0130A506A601A7012008210403190F
:102090004A284B2878280130A40055280130A03563
:1020A000A10D890B4F280130A407A11F58285928DA
:1020B0004E280130A635A70D890B5A282108230286
:1020C000031D642820082202031C672868286D2845
:1020D0002008A2022108A33B26140130A136A00C3F
:1020E000890B6E280130A402031D7728782859280F
:1020F000250803197C287D288228A609A709A60A95
:102100000319A70A2708A1002608A000080020003C
:10211000AC01AD01260886008701403FA800413F81
:10212000A900280884002908850012002A3A031D06
:102130009A289B28CA282608860087010130810733
:1021400041310318810A27088600870101088400AD
:10215000850102308107003FAC00013FAD00DE2861
:102160002D08A1002C08A0000A30A2000030A30016
:102170009D31A625903120002B082007AC000030AF
:10218000213DAD00260886008701013081074131DD
:102190000318810A260886008701403FA800413FB6
:1021A000A90028088400290885000008D03EAB005B
:1021B0000A302B02031CDD28DE28B0282D08A700DA
:1021C0002C08A60008002000250826040319E92889
:1021D000EA28F02825082604031DEF28F028F52812
:1021E00023089B31B023903140292508860026081A
:1021F00087004931160001040319FF28002920290E
:1022000025088600260887004931403FA700413F46
:10221000A80025088600260887004231403FA90013
:10222000413FAA002A08803AAB002808803A2B02D6
:10223000031D1C292708290203181F2920294029CA
:1022400020002508860026088700423125088400E2
:1022500026088500003FA700013FA800403F270750
:102260008400413F283D8500230880002508860022
:102270002608870042310130810741310318810A65
:1022800008002000A7007B296F30A300AA30A4001B
:10229000A329D130A300A930A400A329FA30A300B8
:1022A000A930A400A3290A30A300AA30A400A329BE
:1022B0000230A300AA30A400A329EA30A300A93069
:1022C000A400A329F230A300A930A400A3297E30E2
:1022D000A300AA30A400A3291230A300AA30A400AE
:1022E000A3292230A300AA30A400A3291A30A300F6
:1022F000AA30A400A3292708A500A6012608003AB1
:102300000319832976292508003A03194429013A3B
:1023100003194929033A03194E29013A031953298C
:10232000073A03195829013A03195D29033A031999
:102330006229013A031967290F3A03196C29013AF6
:1023400003197129762908002000A4000230240214
:10235000031CAB29AC29AD290C2A0630A0002408A7
:102360009C3117249131A13E86008701010820008D
:1023700023060319BC29BD290C2A0630A000240815
:102380009C3117249131A13E86008701200023084B
:1023900081000630A00024089C3117249131A23E10
:1023A000860087010030C03FC13F06302000A000FA
:1023B00024089C3117249131A43E860087018101B5
:1023C00006302000A00024089C3117249131A53E3E
:1023D000860087018101200023080319F029F129D3
:1023E000FC292408031DF529F629F92922008E1459
:1023F0000C2A22000E160C2A2408031D002A012A8A
:10240000042A22008E10062A22000E122000A001AB
:1024100024089D3112259131080060302000A00071
:10242000A101A20131009518162A172A122A1517A0
:1024300020002108023E310091007030920094018A
:1024400020002008210786000130870001083100A4
:102450009300200003108B1F2E2A2F2A302A0314EA
:102460008B133100151555309600AA30960095143F
:1024700095183B2A3C2A382A15112000031C412AB2
:10248000422A432A8B170130A1070030A23D0030B9
:102490002202083003192102031C4F2A502A122A53
:1024A00031009518542A552A502A151701309100E9
:1024B0007030920094015A309300200003108B1F5B
:1024C000622A632A642A03148B13310015155530D0
:1024D0009600AA309600951495186F2A702A6C2AD7
:1024E00015112000031C752A762A772A8B170800FD
:1024F000F501DC2A0E30F00075089C31042492317D
:102500004B3E860001308700160001040319892A1A
:102510008A2A9A2A0E30F00075089C3104249231E0
:102520004B3E86000130870001308102413100308E
:10253000813B7F310E30F00075089C3104249231CC
:102540004D3E860001308700160001040319A92AB8
:10255000AA2ABA2A0E30F00075089C310424923160
:102560004D3E86000130870001308102413100304C
:10257000813B7F310E30F00075089C31042492318C
:102580004F3E860001308700160001040319C92A56
:10259000CA2ADA2A0E30F00075089C3104249231E0
:1025A0004F3E86000130870001308102413100300A
:1025B000813B7F310130F50721006D087502031C56
:1025C000E22AE32A7A2A080020002F08B7002E0802
:1025D000B60036083704031DEE2AEF2AF32A2A3004
:1025E000B600AA30B700B801B901FA2A0130B8071D
:1025F0000030B93D3608380784003708393D85007A
:102600001200031D042B052BF62A3908B3003808E5
:10261000B20021002D082000B50021002C08200068
:10262000B4007818142B152B4D2B272B20302000AD
:10263000A3000030A4002D08A6002C08A5009031AE
:10264000E320923101302000B8070030B93D39084D
:10265000803AB0003508803A3002031D312B34082F
:102660003802031C342B352B162B4D2B36088400D7
:10267000370885000008B000B1013008A300310818
:10268000A4002D08A6002C08A5009031E32092316B
:1026900001302000B6070030B73DFF302000B20700
:1026A000FF30B33D320A031D592B330A031D592B4A
:1026B0005A2B362B781C5D2B5E2B7E2B702B2030FB
:1026C0002000A3000030A4002D08A6002C08A500BF
:1026D0009031E320923101302000B8070030B93D3D
:1026E0003908803AB0003508803A3002031D7A2B51
:1026F00034083802031C7D2B7E2B5F2B0800310031
:102700001517013091007030920015145A301306DD
:10271000031D8B2B8C2BDD2B60302000A400A60129
:10272000A7013100151720002608023E3100910054
:10273000703092001514200024082607860001300E
:10274000870031001308810001302000A607003007
:10275000A73D00302702083003192602031CB12BC5
:10276000B22B912BA501D42B2508A3000230A33551
:10277000890BB72B2308613E8600013087000930A2
:102780000106031DC42BC52BD12B0E30A00025083C
:102790009C3117249331443E860001308700093074
:1027A000810001302000A50721006D0820002502CE
:1027B000031CDB2BDC2BB42B1D2C2000A8012808CC
:1027C000A3000230A335890BE22B2308603E86006C
:1027D0000130870028080B3E81002808A300023042
:1027E000A335890BF02B2308613E8600013087005A
:1027F00081012808A3000230A335890BFC2B230894
:10280000623E860001308700FF3081002808A30067
:102810000230A335890B092C2308633E8600013062
:10282000870081010130A80702302802031C192CFF
:102830001A2CDF2B92310D22933108000130200039
:10284000C300BF1B242C262C0130272C0030C600CF
:1028500021002D082000C50021002C082000C40004
:1028600046080319342C352C492CFF30C407FF309F
:10287000C53D4608031D3D2C3E2C432C2B30C1008A
:102880000030C200472C2D30C1000030C20041088A
:10289000C6001F30C7000030C8002400DF01862CAE
:1028A000FF302000C707FF30C83D4708403E860084
:1028B000023087000A30A0000030A1003F08A300CA
:1028C0003E08A2009F315227943120002108A70022
:1028D0002008A6009B31F223943120002608303EC8
:1028E0008100C301FF30C407FF30C53D0A30A0009E
:1028F0000030A1003F08A3003E08A20090312B2029
:10290000943120002108BF002008BE0020004808A4
:10291000803AC00080304002031D902C01304702F5
:10292000031C932C942CB12C20003E083F04031D63
:102930009A2C9B2C502C4308031D9F2CA02C502C10
:102940004508803AC00080304002031DA92C0130A8
:102950004402031CAC2CAD2CB12CF818B02CB12CBB
:10296000502C200046080319B62CB72CC22CFF307F
:10297000C707FF30C83D4708403E86000230870049
:10298000460881003D08B5003C08B4004708403EB9
:10299000B6004508B8004408B700883103209431D8
:1029A000080015302100E3004B30E200BE30890BF7
:1029B000D72CE20BD72CE30BD72C0000903103204F
:1029C000943178302000A0001230A1009B313B23CD
:1029D00094318B170B1760302000E100AA30E20021
:1029E0009B31C023943129302000E100A930E2005E
:1029F0009B31C02394319F31A42794319031012021
:102A000094312100ED0015302000E100A930E200F2
:102A100021006D08E200E30162082000E3002100CC
:102A200063082000E4009B31C0239431F030200083
:102A3000E100A530E2009B31C02394318B302000AF
:102A4000E100AA30E2009B31C02394313F302000E6
:102A5000A100AA30A2009C315524943129302100D4
:102A6000E3009630E2007F30890B342DE20B342DE9
:102A7000E30B342D8E302000E100AA30E2009B31C0
:102A8000C02394313F302000A100AA30A2009C3125
:102A90005524943129302100E3009630E2007F3044
:102AA000890B502DE20B502DE30B502D913020005F
:102AB000E100AA30E2009B31C02394313F30200076
:102AC000A100AA30A2009C31552494312930210064
:102AD000E3009630E2007F30890B6C2DE20B6C2D09
:102AE000E30B6C2DAB302000E100A930E2009B31FC
:102AF000C02394311A302000E100A830E2009B315D
:102B0000C023943101302100E900CB2D0130EA00CF
:102B1000C32D6400210069082000A80021006A0874
:102B20002000A90001308831492094319C302000D8
:102B3000E100A930E20021006908E200E301620837
:102B40002000E300210063082000E40021006A085F
:102B5000E400E50164082000E5002100650820008C
:102B6000E6009B31C023943103302100E30008309C
:102B7000E2007730890BBA2DE20BBA2DE30BBA2DA8
:102B800001302100EA076A086D020318C82DC92D1B
:102B9000892D0130E90769086D020318D02DD12D68
:102BA000862D0130E900192E0130EA00112E640053
:102BB000210069082000A80021006A082000A9005F
:102BC00000308831492094318F302000E100A93055
:102BD000E20021006908E200E30162082000E3004E
:102BE000210063082000E40021006A08E400E501F8
:102BF00064082000E500210065082000E6009B3104
:102C0000C023943103302100E3000830E200773024
:102C1000890B082EE20B082EE30B082E0130210051
:102C2000EA076A086D020318162E172ED72D0130F9
:102C3000E90769086D0203181E2E1F2ED42D893056
:102C40002000E100A730E2009B31C0239431FD3029
:102C50002000E100A730E2009B31C0239431210025
:102C6000EC01B42E0E302000A00021006C089C3135
:102C700017249431443E86000130870081010E30D4
:102C80002000A00021006C089C3117249431453E9F
:102C900086000130870021006C089C313F2494316C
:102CA00081000E302000A00021006C089C31172408
:102CB0009431463E8600013087000E302000A0008F
:102CC00021006C089C3117249431453E840001306A
:102CD0008500000881000E302000A00021006C0853
:102CE0009C3117249431473E8600013087008101D2
:102CF0000E302000A00021006C089C311724943174
:102D0000483E86000130870081010E302000A0007F
:102D100021006C089C31172494314B3E8600013011
:102D200087000030C03FC13F0E302000A0002100CE
:102D30006C089C31172494314D3E86000130870089
:102D40000030C03FC13F0E302000A00021006C08C1
:102D50009C3117249431513E860001308700FF30AA
:102D6000810001302100EC076D086C02031CB92EB4
:102D7000BA2E322E05302100E3000F30E200F13090
:102D8000890BC02EE20BC02EE30BC02EA830200012
:102D9000E100A930E2009B31C02394310C302000C7
:102DA000E100A730E2009B31C02394312100E8010B
:102DB0001D2FBE302000E100A930E200210068088C
:102DC000013E2000E300003003180130E4009B3195
:102DD000C02394310E302000A000210068089C31EF
:102DE00017249431453E8600013087000108031DF9
:102DF000FA2EFB2E042F38302000E100AA30E2002A
:102E00009B31C02394311A2F0E302000A0002100E6
:102E100068089C3117249431443E860001308700B5
:102E20000830810031302000E100AA30E2009B31FF
:102E3000C023943101302100E8076D086802031CAB
:102E4000222F232FD92E22302000E100A430E200CF
:102E50009B31C023943193317F2394312100E701CA
:102E60005B2F00302000E100A930E200210067085C
:102E7000013E2000E300003003180130E40021008F
:102E80006708E2000230E235890B432F6208603E9A
:102E90008600013087000108E300E4016308200098
:102EA000E500210064082000E6009B31C023943136
:102EB00001302100E7076D086702031C602F612FB6
:102EC000312F62302000E100AA30E2009B31C023A4
:102ED0009431A6302000E100A730E2009B31C023EE
:102EE000943164002100E6017C2F66088A319F221C
:102EF000943101302100E6076D086602031C812F22
:102F0000822F752F9A31F3229431003A0319892FB9
:102F10008A2F712F9C31882494312100EB000D30D1
:102F20006B060319942F952F9B2F0A306B06031DF8
:102F30009A2F9B2FBF2F6B089D31EA2594312100DA
:102F40004C08A03E8600023087008101A03020009E
:102F5000EC0080318C20943162302000E100AA30F6
:102F6000E2009B31C023943154302000E100AA30AC
:102F7000E2009B31C02394312100CC01712F083035
:102F80006B060319C42FC52FCB2F7F306B06031D93
:102F9000CA2FCB2FDB2F4C080319CF2FD02F712F27
:102FA0000130CC0283302000E100AA30E2009B31E6
:102FB000C0239431712F3F304C020318E02FE12FD2
:102FC000712F6B089D31EA259431613021006B022D
:102FD000031CEB2FEC2FF42F7B306B020318F12F27
:102FE000F22FF42F2030EB024C08A03E8600023076
:102FF00087006B0881000130CC07712F80314D288C
:1035BC000800080023001D121D1608008831002089
:1035CC009A3108003E00100E890C01390800640085
:1035DC0080010131890BEE2A003421004A08031DB9
:1035EC00F82AFA2A0130FB2A0030080020002108B2
:1035FC002100B900200020082100B800080020009C
:10360C006F08031D0A2B0C2B01300D2B003008000A
:10361C00200021082100C900200020082100C8003A
:10362C000800200021082100C700200020082100EC
:10363C00C6000800200021082100C5002000200839
:10364C002100C4000800200021082100C300200034
:10365C0020082100C2000800200021082100BD0024
:10366C00200020082100BC000800200021082100B7
:10367C00BB00200020082100BA0008006030320096
:10368C0099009B019D0107309F009E019C01080041
:10369C00200010100B140030A0000030A1009B3152
:1036AC0032239B31080029009F019A01990198014E
:1036BC009D019C011A309B0080309E000800210067
:1036CC003A083B0403196B2B6C2B712B3B088A00BB
:1036DC003A080A009B31200091100800210038089C
:1036EC00390403197A2B7B2B802B39088A00380874
:1036FC000A009B31200092100800200020082104B1
:10370C000319892B8A2B912B21082100B100200051
:10371C0020082100B0000800200020082104031913
:10372C00982B992BA02B21082100AF0020002008FA
:10373C002100AE000800BB3028009D009C01003029
:10374C002100B6000030B70020009213073028008B
:10375C009E0008002000A2009B3105239B31003AFB
:10376C000319B92BBA2BB22B200022089D31EA2564
:10377C009B31080063302000EB000030D900DA00E8
:10378C006208DC006108DB006B30DD009D318725B1
:10379C009B3108007C3020009E009D01DF30210011
:1037AC00BA001A30BB002000911021009114073090
:1037BC0020009F0008007C30280096009501003006
:1037CC002100B8001030B900200092102100921492
:1037DC0007302800970008002000A71BF62BF72BBA
:1037EC00F82B032C2609A8002709A900A80A0319FD
:1037FC00A90A2808A6002908A7000800F200F10170
:10380C00721C092C0A2C0C2C7008F1070310F00DFB
:10381C000310F20C7208031D142C152C062C7108C5
:10382C0008002000A200A101221C1D2C1E2C202C03
:10383C002008A1070310A00D0310A20C2208031DE1
:10384C00282C292C1A2C210808002000A000433019
:10385C002006031D322C332C362C22000C153E2C4A
:10386C0052302006031D3B2C3C2C3E2C22000C110C
:10387C0008002000A0004C2C9A31E8229C31542CDA
:10388C008731FB279C31542C0030542C2008003AF3
:10389C000319422C013A0319462C4A2C0800632CBC
:1038AC00210884002208850000089C312B249C31BF
:1038BC0001302000A1070030A23D20002108840027
:1038CC00220885001200031D6C2C6D2C562C080050
:1038DC003E00A5012330A600A701A801A9010230D2
:1038EC00AA000830AB00AC01AD018530A40000305B
:1038FC002000A0000030A1009B3120239C3120002F
:10390C00131108007908203E860002308700010858
:10391C002000A1007908013E1F39A0002008F90001
:10392C00210091124A0803199C2C9D2C9F2C0130CC
:10393C00CA0291162000210808003E00AF01233076
:10394C00B0000130B100B201B3010230B400083054
:10395C00B500B601B7018530AE0000302000A000E4
:10396C000030A1009B3129239C31200093110800C9
:10397C00F4007408031DC32CC42CCF2C730803193A
:10398C00C82CC92CCC2C22000E15D92C22000E11BF
:10399C00D92C73080319D32CD42CD72C22008E16B7
:1039AC00D92C22008E120800F1007108031DDF2CA7
:1039BC00E02CEB2C70080319E42CE52CE82C2100EE
:1039CC008C12F52C21008C16F52C70080319EF2C99
:1039DC00F02CF32C21000C12F52C21000C160800F5
:1039EC0002303E0091002330920006309300940187
:1039FC00950102309600143097009801990185309A
:103A0C00900000302000A0000030A1009B310E235C
:103A1C009C312000131008002000A1002108031D78
:103A2C00182D192D242D200803191D2D1E2D212D87
:103A3C0022000E152E2D22000E112E2D20080319FA
:103A4C00282D292D2C2D22008E162E2D22008E1283
:103A5C0008002000A1002108031D352D362D412D15
:103A6C00200803193A2D3B2D3E2D21008C124B2D95
:103A7C0021008C164B2D20080319452D462D492D60
:103A8C0021000C124B2D21000C16080002303E00B8
:103A9C009B0023309C0007309D0007309E009F0147
:103AAC000230A0001430A100A201A30185309A00BD
:103ABC0000302000A0000030A1009B3117239D3165
:103ACC00200093100800203020006F0203186F2D87
:103ADC00702D842D21004B08203E8600013087007C
:103AEC00010823009A0021004B08013E1F39F00009
:103AFC007008CB0001302000EF07862D2100111239
:103B0C00080020005C08E0005B08DF00992D5A08D3
:103B1C00CA005908C9005F30CB005D08CC00CD014C
:103B2C00863179269D3120005F088400600885006D
:103B3C001200031DA22DA32D8D2DD901DA01080031
:103B4C002000A401A501201CAC2DAD2DB12D220807
:103B5C00A4072308A53D0130A235A30D890BB22D76
:103B6C000130A136A00C890BB72D20082104031DB0
:103B7C00C02DC12DA92D2508A1002408A0000800E6
:103B8C002000B201B301DD2D3108AF00B0012F08C8
:103B9C00A3003008A4002E08A6002D08A500903123
:103BAC00E3209D3101302000B2070030B33D2C08DA
:103BBC0032078600023087000108B1003108031D6E
:103BCC00E82DE92DCA2D08002000A1002100111AB2
:103BDC00F02DF12DF62D2000210823009A000E2E39
:103BEC0020006F080319FB2DFC2D0E2E7B08203EA8
:103BFC00860001308700210881007B08013E1F39B7
:103C0C00A0002008FB002100111201302000EF025F
:103C1C00210011160800182E0130A0070130A10751
:103C2C000030A23D200021088400220885000008F5
:103C3C00A300200886000230870001082306031D1C
:103C4C00282E292E322E20088600023087000108EB
:103C5C00031D312E322E122E2008860002308700D2
:103C6C00210884002208850000080102A000A1019F
:103C7C00031CA1030800023022008C008E010930C5
:103C8C0021008C0009308E00303023008C008E0116
:103C9C0024008C018E0125008C018E01373026000A
:103CAC008C003F308E003F3027008C003F308E0060
:103CBC0013303C00A9001030A800A4011D303D00B9
:103CCC0094001D3095001430910027009101920151
:103CDC00930197019801990108002000A40002307B
:103CEC002402031C7A2E7B2E7C2EAF2E0630A000D5
:103CFC0024089C3117249E31A03E860087010108C0
:103D0C002000230603198B2E8C2EAF2E0630A0001C
:103D1C0024089C3117249E31A03E86008701200088
:103D2C00230881000630A00024089C3117249E3102
:103D3C00A23E860087010030C03FC13F200023080F
:103D4C00031DA92EAA2EAF2EA00124089D312F25CC
:103D5C009E3108007A35A03E860001308700003085
:103D6C00C03FC13F23009D1CBC2EBD2ECF2E7A35EB
:103D7C00A03E860001308700011521002E082F047B
:103D8C000319C92ECA2ECF2E2F088A002E080A001E
:103D9C009E3123001D1DD32ED42EE62E7A35A03E47
:103DAC00860001308700811421003008310403198A
:103DBC00E02EE12EE62E31088A0030080A009E31F2
:103DCC0023001908F0007A08013E1F39F100710830
:103DDC007906031DF22EF32EF42E002F7A08203EC6
:103DEC00860002308700700881007108FA000130EB
:103DFC002100CA07080001302000A3020030A43BB8
:103E0C00230A031D0D2F240A031D0D2F0E2F1B2F0C
:103E1C00A001A101512F0130A0070130A1070030F2
:103E2C00A23D0130A3020030A43B200886000230E2
:103E3C00870001080319232F242F432F2108840006
:103E4C0022088500120003192C2F2D2F432F230835
:103E5C0024040319322F332F432F21088400220806
:103E6C0085000008A50020088600023087000108A4
:103E7C0025060319422F432F112F200886000230EC
:103E8C008700210884002208850000080102A00098
:103E9C00A101031CA10308002000A501A31F572F9B
:103EAC00582F5F2FA209A309A20A0319A30A0130F4
:103EBC00A500A11F622F632F682FA009A109A00ADA
:103ECC000319A10A2008210403196D2F6E2F952FB9
:103EDC000130A400782F0130A035A10D890B722F71
:103EEC000130A407A11F7B2F7C2F712F21082302E7
:103EFC00031D822F20082202031C852F862F8A2F58
:103F0C002008A2022108A33B0130A136A00C890B8A
:103F1C008B2F0130A402031D942F952F7C2F250885
:103F2C000319992F9A2F9F2FA209A309A20A0319EB
:103F3C00A30A2308A1002208A00008002000A30166
:103F4C000630A00023089C3117249F31A03E860028
:103F5C008701810106302000A00023089C31172422
:103F6C009F31A13E86008701810106302000A00010
:103F7C0023089C3117249F31A23E86008701003014
:103F8C00C03FC13F06302000A00023089C311724FD
:103F9C009F31A43E86008701810106302000A000DD
:103FAC0023089C3117249F31A53E8600870181018F
:103FBC002000A00123089D312F259F312000A00156
:103FCC0023089D3112259F3101302000A3070230B8
:103FDC002302031CF22FF32FA62F22008E100E1299
:103FEC000C110A302000A0000930A1009A31FC22EB
:103FFC009F310800203420342034203420342034E5
:10400C0020342034203420344534783461346D34F9
:10401C0070346C3465343A34203453344234433481
:10402C0054344C342034523445344C3420343134F0
:10403C00203432342034203420342D342034523483
:10404C0065346C3465346134733465342034313404
:10405C00203461346E34643420343234203453349C
:10406C00773469347434633468342E340D340A3440
:10407C0000342034203420342034203420342034B4
:10408C002034203420344534783461346D34703429
:10409C006C3465343A34203453344234433454341D
:1040AC004C34203443344F344E34203431342034A7
:1040BC0032342034203420342D34203443346F34C3
:1040CC006E346E34653463347434203431342034BB
:1040DC0061346E34643420343234203453347734C5
:1040EC0069347434633468342E340D340A34003437
:1040FC0050346F34723474342034253464343A348C
:10410C002034483475346E3467342034753470344C
:10411C00203464347534723469346E34673420342A
:10412C00743461346C346B342E34203450346F342A
:10413C007234743420342534643420346934733448
:10414C0020346E346F347734203441345534543445
:10415C004F34203441344E34533457344534523474
:10416C002E340D340A3400342034203420342034DE
:10417C002034203420342034203420344534783416
:10418C0061346D3470346C3465343A3420345334C7
:10419C004234433454344C342034463455344C3447
:1041AC004C345F3452344534533445345434203415
:1041BC0020342D34203452346534733465347434E3
:1041CC00203453347734693474346334683462344F
:1041DC006F346134723464342E340D340A34003448
:1041EC002034203420342034203420342034203423
:1041FC0020342034553473346134673465343A34A4
:10420C002034533445345434203448344C34203422
:10421C003C3470346F34723474343A3431342D3459
:10422C00253464343E3420343C346534783474346E
:10423C003A34313430342D343934393420346F3409
:10424C00723420344F34463446343E340D340A3400
:10425C00003450346F347234743420342534643464
:10426C003A342034483475346E3467342034753421
:10427C007034203464347534723469346E34673479
:10428C002034743461346C346B342E342034503418
:10429C006F347234743420342534643420346934EB
:1042AC00733420346E346F347734203442345534C4
:1042BC00533459342E340D340A34003453344134CD
:1042CC00563445345F3454344F345F3445344534BC
:1042DC00503452344F344D3420343A342034533427
:1042EC00613476346534203463347534723472340A
:1042FC0065346E34743420347334653474347434EB
:10430C0069346E3467347334203474346F3420342D
:10431C0045344534503452344F344D342E340D34EE
:10432C000A34003453344234433454344C3420343F
:10433C00203420343A3420344D3461346E347534A6
:10434C0061346C346C34793420344F344E342F3423
:10435C004F34463446342F34463455344C344C3474
:10436C005F3452344534533445345434203453344C
:10437C007734693474346334683462346F34613440
:10438C00723464342E340D340A34003450346F34A7
:10439C00723474342034253464343A342034433445
:1043AC0061346C346C34653472342034613462346E
:1043BC006F3472347434653464342E342034503495
:1043CC006F347234743420342534643420347334B0
:1043DC0074346F3470347034653464342034723413
:1043EC0069346E34673469346E3467342E340D346A
:1043FC000A34003450346F3472347434203425341D
:10440C0064343A3420344F34663466342D344834B2
:10441C006F346F346B3420342D343E3420344834B4
:10442C004F3454344C3449344E3445342034743481
:10443C006F34203445347834743420342534643467
:10444C0020342D343E34203452344F3455345434CB
:10445C0049344E3447340D340A340034203420347B
:10446C0020342034203420342034203420342034A0
:10447C00553473346134673465343A3420345334EE
:10448C0045345434203445345834543420343C347A
:10449C0070346F34723474343A3431342D342534EE
:1044AC0064343E3420343C346534783474343A34D7
:1044BC00313430342D34393439343E340D340A34FB
:1044CC000034203420342034203420342034203460
:1044DC0020342034203455347334613467346534DB
:1044EC0020343A34203453344234433454344C342E
:1044FC00203443344F344E342F34523445344C34FE
:10450C0020343C3470346F347234743431343E346F
:10451C0020343C3470346F347234743432343E345E
:10452C000D340A3400345334453454342034453477
:10453C005834543420343A3420345334653474347D
:10454C00203465347834743465346E34733469349F
:10455C006F346E3428346E3475346D346234653493
:10456C0072342934203466346F3472342034653418
:10457C00613463346834203470346F34723474347E
:10458C002E340D340A3400342034203420342034BA
:10459C0020342034203420342034203455347334E7
:1045AC006134673465343A342034533445345434EC
:1045BC00203441344134203420343C3470346F3452
:1045CC00723474343A3431342D34253464343E34FA
:1045DC0020343C344F344E342F344F34463446342C
:1045EC003E340D340A34003453347534633463343C
:1045FC006534733473343A34203450346F34723439
:10460C007434203425346434203473347434613479
:10461C007434653420347334653474342034743415
:10462C006F3420344134553454344F3420344134B5
:10463C004E3453345734453452340D340A34003428
:10464C0050346F34723474342034253464343A3436
:10465C002034433461346C346C3465346434203429
:10466C0050346F3472347434203425346434203430
:10467C002D343E3420344134553454344F342034AA
:10468C0041344E34533457344534523465346434E5
:10469C000D340A3400345534733461346734653462
:1046AC003A34203453344234433454344C3420346C
:1046BC00523445344C3420343C346C3469346E34CC
:1046CC00653431343E3420343C346C3469346E34CB
:1046DC00653432343E342034283431342D3425348E
:1046EC00643429340D340A34003455347334613451
:1046FC00673465343A3420345334423443345434BC
:10470C004C34203443344F344E3420343C346C34E9
:10471C0069346E34653431343E3420343C346C347A
:10472C0069346E34653432343E34203428343134B8
:10473C002D342534643429340D340A340034533484
:10474C0045345434203441344134203420343A3408
:10475C002034533465347434203470346F347234F0
:10476C007434203474346F3420344134553454341C
:10477C004F34203441344E3453345734453452344E
:10478C0020346D346F34643465342E340D340A3473
:10479C00003444344F345F34463455344C344C3448
:1047AC005F3452344534533445345434203420343B
:1047BC003A342034523465347334653474342034D0
:1047CC0050344234583443346F34723465342034AA
:1047DC00703472346F346734723461346D342E3407
:1047EC000D340A340034453478346534633475340C
:1047FC007434653464343A34203453347734693443
:10480C0074346334683443346F346E3474347234B7
:10481C006F346C342834663461346C3473346534DE
:10482C002C342034253464342C3420342534643432
:10483C0029340D340A34003450344234583443345F
:10484C006F34723465343A3420344C346F34613400
:10485C00643469346E34673420347334653474349E
:10486C00743469346E34673473342034663472347F
:10487C006F346D34203445344534503452344F3415
:10488C004D342E340D340A340034533475346334BF
:10489C0063346534733473343A34203450346F34A5
:1048AC0072347434203425346434203468346F34D6
:1048BC0074346C3469346E34653420347334653438
:1048CC007434203474346F34203445347834743474
:1048DC002034253464340D340A34003445347834AF
:1048EC006534633475347434653464343A34203448
:1048FC0053347734693474346334683443346F34E8
:10490C006E34743472346F346C34283474347234BE
:10491C00753465342C342034253464342C342034F0
:10492C002534643429340D340A34003450346F3453
:10493C00723474342034253464343A3420344134A1
:10494C006E347334773465347234653464342034A3
:10495C0050346F347234743420342534643420343D
:10496C002D343E342034543441344C344B3449349B
:10497C004E3447340D340A340034533475346334B4
:10498C0063346534733473343A34203450346F34B4
:10499C0072347434203425346434203465347834DF
:1049AC00743465346E34733469346F346E3420343B
:1049BC00733465347434203474346F3420342534B7
:1049CC0064340D340A34003450346F34723474341B
:1049DC002034253464343A3420344434693461341A
:1049EC006C3469346E346734203473347434613409
:1049FC00723474346534643420342D343E342034B1
:104A0C004434493441344C3449344E3447340D34F5
:104A1C000A34003450346F347234743420342534F6
:104A2C0064343A342034433461346C346C34693437
:104A3C006E346734203450346F3472347434203410
:104A4C002534643420342D343E3420344334413402
:104A5C004C344C3449344E3447340D340A3400341D
:104A6C0050346F34723474342034253464343A3412
:104A7C0020344E3475346D346234653472342034E1
:104A8C0063346F346D3470346C3465347434653421
:104A9C0020342D343E34203452344F345534543475
:104AAC0049344E3447340D340A340034533475349D
:104ABC00633463346534733473343A34203453348C
:104ACC0065347434743469346E346734733420341C
:104ADC0073346134763465346434203474346F3414
:104AEC00203445344534503452344F344D342E3404
:104AFC000D340A34003455347334613467346534FE
:104B0C003A34203453344534543420344134413411
:104B1C0020343C3470346F34723474343A3431345D
:104B2C002D34253464343E3420343C344F344E34EC
:104B3C002F344F34463446343E340D340A3400346A
:104B4C0053347534633463346534733473343A34A6
:104B5C00203450346F34723474342034253464343B
:104B6C0020347334743461347434653420347334C5
:104B7C0065347434203474346F3420344934443400
:104B8C004C3445340D340A34003450346F347234A0
:104B9C0074342034253464343A34203449346E343B
:104BAC00763461346C346934643420346E34753446
:104BBC006D346234653472342034253464342034DA
:104BCC002D343E34203442345534533459340D345E
:104BDC000A34003450344234583443346F34723411
:104BEC0065343A34203449346E346934743469345D
:104BFC0061346C3469347A3469346E3467342034FB
:104C0C0053347734693474346334683462346F34B5
:104C1C006134723464342E342E342E3400345334D4
:104C2C0054344134543420342034203420343A3435
:104C3C00203444346934733470346C3461347934D2
:104C4C002034633475347234723465346E34743495
:104C5C0020345334743461347434753473342E34D6
:104C6C000D340A340034533475346334633465348E
:104C7C00733473343A34203450346F3472347434A3
:104C8C00203425346434203468346F3474346C34F8
:104C9C0069346E346534203464346934733461346B
:104CAC0062346C34653464340D340A340034533457
:104CBC0045345434203448344C34203420343A3481
:104CCC002034533465347434203470346F3472347B
:104CDC007434203448344F3454344C3449344E34C6
:104CEC00453420346E3475346D346234653472342A
:104CFC000D340A3400344534723472346F347234E7
:104D0C003A34203455346E346B346E346F3477341B
:104D1C006E34203453344234433454344C342034C1
:104D2C0073347534623463346F346D346D34613480
:104D3C006E3464342E340D340A34003450346F34F1
:104D4C00723474342034253464343A34203450347E
:104D5C006F34723474342034253464342034693420
:104D6C0073342034623475347334793420342D34F4
:104D7C003E34203442345534533459340D340A34CF
:104D8C0000344534783465346334753474346534A4
:104D9C0064343A342034533477346934743463349F
:104DAC00683462346F346134723464342034463481
:104DBC0075346C346C34203452346534733465344B
:104DCC0074340D340A34003441347634613469342B
:104DDC006C34613462346C3465343A34203443348A
:104DEC004F344E342C342034523445344C342C341F
:104DFC002034463455344C344C345F3452344534BE
:104E0C005334453454340D340A3400345034423461
:104E1C00583443346F34723465343A342034433468
:104E2C006834653463346B3469346E3467342034DD
:104E3C004C3449344E34453420346D346F3464343E
:104E4C0075346C34653473340D340A340034503496
:104E5C006F34723474342034253464343A3420344E
:104E6C004F34663466342D3448346F346F346B34BD
:104E7C0020342D343E3420344434493441344C34C1
:104E8C0054344F344E3445340D340A3400345234D7
:104E9C0065346C3465346134733465342034533484
:104EAC00773469347434633468343A3420342534B8
:104EBC0064342D34253464342034253464342D3456
:104ECC00253464340D340A34003443346F346E3476
:104EDC006E34653463347434203453347734693429
:104EEC007434633468343A342034253464342D34C7
:104EFC00253464342034253464342D34253464341E
:104F0C000D340A34003450344234583443346F3442
:104F1C00723465343A34203453347734693474340D
:104F2C00633468342034743465347334743420340A
:104F3C0064346F346E3465342E340D340A340034DA
:104F4C0050344234583443346F34723465343A3408
:104F5C0020343D343D343D342034503442345834C4
:104F6C0020345234653461346434793420343D3423
:104F7C003D343D340D340A34003450346F347234C3
:104F8C0074342034253464343A3420344434693451
:104F9C0067346934743420342534643420347234E6
:104FAC0065346334653469347634653464340D3473
:104FBC000A3400344534723472346F3472343A34F7
:104FCC00203450346F3472347434203425346434C7
:104FDC00203473347434613474346534203465345F
:104FEC00723472346F3472340D340A3400345034E9
:104FFC004234583443346F34723465343A34203488
:10500C005234653473346534743469346E346734B3
:10501C00203441346C346C34203453347434613463
:10502C00743465347334003450344234583443345B
:10503C006F34723465343A342034543465347334F8
:10504C00743469346E3467342034533477346934AF
:10505C0074346334683473342E340D340A340034AD
:10506C004534723472346F3472343A3420344934E7
:10507C006E34763461346C34693464342034613485
:10508C007234673475346D3465346E3474347334FF
:10509C002E340D340A34003450346F34723474347A
:1050AC002034253464343A342034483475346E3426
:1050BC0067342034753470342E3420342D343E341F
:1050CC002034493444344C3445340D340A340034DF
:1050DC002D342D342D3420344C3469346E346534F5
:1050EC002034533474346134743475347334203450
:1050FC002D342D342D342D342D342D342D340D34BC
:10510C000A3400342D342D342D342D342D342D34DB
:10511C002D342D342D342D342D342D342D342D347B
:10512C002D342D342D342D342D342D342D342D346B
:10513C002D340D340A3400344534723472346F34E7
:10514C0072343A34203449346E34763461346C34ED
:10515C0069346434203466346F3472346D346134A1
:10516C0074342E340D340A34003450346F347234A9
:10517C00743420342534643420345B34453478342E
:10518C0074343A34253464345D3420343A34203465
:10519C0025342D343834733400345234653473343C
:1051AC0065347434743469346E3467342034503458
:1051BC004234583443346F34723465342E342E34C4
:1051CC002E340D340A34003455346E346B346E3452
:1051DC006F3477346E34203443346F346D346D3423
:1051EC0061346E3464343A342034253473340D34E1
:1051FC000A340034203450346F3472347434203414
:10520C0025343234643420343A3420344534783400
:10521C0074342034253464340D340A34003420348E
:10522C0041346334743469347634653420344C340A
:10523C0049344E34453453343A34203425346434B0
:10524C000D340A34003450344234583443346F34FF
:10525C00723465343A3420345334743461347234D7
:10526C00743469346E3467340D340A3400342034A9
:10527C0028345434613472346734653474343A34B9
:10528C00203450346F347234743420342534643404
:10529C00293400342D342D342D3443346F346D3493
:1052AC006D3461346E34643473342D342D342D34B8
:1052BC000D340A340034203420347C342034483407
:1052CC006F3474346C3469346E3465343A34253448
:1052DC00303432346434003453344134563445342D
:1052EC005F3454344F345F34453445345034523485
:1052FC004F344D34003444344F345F3446345534D9
:10530C004C344C345F345234453453344534543477
:10531C00003420344F34463446343A342534643423
:10532C002D34253464340D340A34003420344F3495
:10533C004E343A34253464342D34253464340D34ED
:10534C000A34003420342D34203464346F346E34F9
:10535C0065342E340D340A34003420347C3420343B
:10536C0048346F346F346B343A342534733400342E
:10537C00203450346F347234743420342534323445
:10538C006434003453344534543420344534583464
:10539C005434203400344434493441344C3454347F
:1053AC004F344E3445340034533445345434203463
:1053BC004134413420340034533445345434203493
:1053CC0048344C3420340034523449344E3447344D
:1053DC0049344E3447340034543441344C344B3417
:1053EC0049344E34473400344434493441344C3419
:1053FC0049344E3447340034433441344C344C3407
:10540C0049344E344734003452344F3455345434C8
:10541C0049344E344734003455344E3441345634C8
:10542C00413449344C34003455344E344B344E34BE
:10543C004F3457344E3400344134553454344F3493
:10544C0041344E345334003428346E3475346C3457
:10545C006C34293400342D3420344E3447340D341C
:10546C000A3400342D3420344F344B340D340A3488
:10547C000034523446344634463446340D34003409
:10548C0053344234433454344C34203400344F3489
:10549C0046344634283448342934003450344234A9
:1054AC0058343E34203400344F344E3428344C3489
:1054BC00293400340D340A340D340A340034523497
:1054CC0045344C342034003443344F344E3420347F
:1054DC000034493444344C34453400344834453475
:1054EC004C34503400345334543441345434003438
:1054FC00423455345334593400340834203408348D
:10550C0000344F3446344634003431342E340034B5
:10551C0032342E34003433342E3400344F344E3481
:02552C00003449
:020000040001F9
:08000E008C3FF33FFF3FFF3F71
:00000001FF
